:0400000027EF03F0F3
:08000800046ED8CF05F0E0CF33
:1000100006F00001E9CF0CF0EACF07F0E1CF08F0DD
:10002000E2CF09F0D9CF0AF0DACF0BF0F3CF12F01C
:10003000F4CF13F0FACF14F000C00EF001C00FF0AF
:1000400002C010F003C011F09DA42AEF00F09EB48E
:100050005AEF00F00EC000F00FC001F010C002F027
:1000600011C003F00CC0E9FF07C0EAFF078E08C00B
:10007000E1FF09C0E2FF0AC0D9FF0BC0DAFF12C0DE
:10008000F3FF13C0F4FF14C0FAFF045006C0E0FFF2
:1000900005C0D8FF1000F2CF0DF0F29EF76AB00F46
:1000A000F66E000EF7220900F5500DBEF28E12001A
:1000B0000002010340809E942AEF00F0EA6A600E7D
:1000C000E96EEF5011E00A0E016EBF0E006E0400E3
:1000D000002EFDD7012EF9D75E0E006E002EFED742
:1000E00000D00400EF2EEFD7000CF2CF60F0F29EAC
:1000F000150EA96EA69CA69EA680A85060BEF28E84
:100100005F6E5F5204E0899A5FC060F0D7DF036AD8
:100110005E50F2CF60F0F29EBEDF60BEF28E5F6E88
:100120005FA002D0898C01D0899C5FA202D0898E09
:1001300001D0899E5EC022F0F2CF60F0F29E160ED2
:10014000A96EA69CA69EA680A85060BEF28E5F6E89
:100150005F5206E024A204D05FC060F0AFDF898A5E
:10016000000CF2CF5BF0F29E130EA96EA69CA69E29
:10017000A680A8505BBEF28E5A6E899A5AC060F073
:100180009DDF2492249424908B968B948B803880CE
:1001900036803C808A96456A4094000C5D505F0230
:1001A000F3CF01F0F4CF00F06002F35000265E5070
:1001B0005F02F3500020026E000C216A5E6A95DF38
:1001C00028A203D058C05DF002D059C05DF0215084
:1001D0005D5C0FE05DC021F02080F2CF5EF0F29E0A
:1001E0000D0EA96EA69CA69EA680A8505EBEF28E9D
:1001F000236E000CF2CF5DF0F29E140EA96EA69C49
:10020000A69EA680A8505DBEF28E5A6E5A5204E099
:10021000899A5AC060F052DF2892289428908B96D1
:1002200024A229D08B90F2CF5DF0F29E180EA96E19
:10023000A69CA69EA680A8505DBEF28E5C6A5B6EF0
:100240005CC05EF05BC05DF0606A0A0E5F6EA6DFA8
:1002500002C05CF001C05BF05CC05DF05D2A5D0631
:10026000D8B404D0FF0E606E29DFF9D75BC060F010
:1002700025DF898AA2DF000C248224808B84276AF0
:100280008A863C9028A203D08B868B8001D08B90ED
:10029000F2CF5CF0F29E170EA96EA69CA69EA680D9
:1002A000A8505CBEF28E5B6A5A6E5BC05EF05AC0AC
:1002B0005DF0606A0A0E5F6E71DF02C05BF001C024
:1002C0005AF05BC05CF05C2A5C06D8B404D0FF0E28
:1002D000606EF4DEF9D75AC060F0F0DE898A6DDF17
:1002E000000C5A6A81BA02D0020E5A2681BE02D090
:1002F000010E5A261D505A5C08E01E505A5C04E05C
:100300001C801F6A5AC01EF001D01C9024A220D06D
:1003100024B01ED0000E80B4010E5B6E000E36B00D
:10032000010E5B5C05E036B202D03682376A01D03E
:100330003692000E80B6010E5B6E000E38B0010ED4
:100340005B5C05E038B202D03882396A01D038925D
:10035000000E81B4010E5B6E000E32B0010E5B5CCC
:1003600005E032B202D03282336A01D03292000EFE
:1003700081B0010E5B6E000E34B0010E5B5C05E1D6
:1003800034B202D03482356A01D03492000E82BE7B
:10039000010E5B6E000E3AB0010E5B5C05E03AB2F6
:1003A00002D03A823B6A01D03A92000E82B8010E26
:1003B0005B6E000E30B0010E5B5C05E030B202D027
:1003C0003082316A01D03092000E82BC010E5B6E29
:1003D000000E2CB0010E5B5C05E02CB202D02C822A
:1003E0002D6A01D02C92000E82B2010E5B6E000EBF
:1003F0002EB0010E5B5C05E02EB202D02E822F6A79
:1004000001D02E921BEF04F0040E016EC250C30BFC
:100410000110C26EC282C2B2FED7C4CF5AF0000E23
:10042000016EC250C30B0110C26EC282C2B2FED7AF
:10043000C4CF5BF04B505A5C05E24B505B5C02E270
:100440004E9006D04E80010E4F24505C01E2502A9F
:100450001CEF04F03D2AD8B43E2A3CA026D0F2CFAF
:100460005CF0F29E110EA96EA69CA69EA680A850D6
:100470005CBEF28E5B6A5A6E5BC05EF05AC05DF085
:10048000606A0A0E5F6E8ADE02C05BF001C05AF03D
:100490005B503E5C09E303E13D505A5C05E23C9051
:1004A0003E6A3D6A8A86426A1CD0020E426EF2CFD4
:1004B0005CF0F29E120EA96EA69CA69EA680A85085
:1004C0005CBEF28E5B6A5A6E5B503E5C0AE303E1EF
:1004D0003D505A5C06E23C803E6A3D6A8A96030EB5
:1004E000426E000C3D2AD8B43E2A3CA01BD0F2CF6D
:1004F0005CF0F29E0F0EA96EA69CA69EA680A85048
:100500005CBEF28E5B6A5A6E5B503E5C0AE303E1AE
:100510003D505A5C06E23C903E6A3D6A8A86020E75
:10052000426E1BD0426AF2CF5CF0F29E100EA96EB2
:10053000A69CA69EA680A8505CBEF28E5B6A5A6EF0
:100540005B503E5C0AE303E13D505A5C06E23C80AE
:100550003E6A3D6A8A96010E426E000CF2CF5DF053
:10056000F29E140EA96EA69CA69EA680A8505DBE03
:10057000F28E5A6E5A5204E0899A5AC060F09EDD9B
:10058000288228808B868B802B6A24A228D0F2CFE9
:100590005DF0F29E180EA96EA69CA69EA680A8509D
:1005A0005DBEF28E5C6A5B6E5CC05EF05BC05DF04F
:1005B000606A0A0E5F6EF2DD02C05CF001C05BF0A3
:1005C0005CC05DF05D2A5D06D8B404D0FF0E606E9D
:1005D00075DDF9D75BC060F071DD898AEEDD000C56
:1005E00040B21ED05750FC0F1BE2040F11EF03F076
:1005F00024A202D0B6DD01D03FDE12D024A204D066
:10060000B0DD020E576E03D037DE030E576E08D0F2
:10061000010E576E31DE04D0010E576EA2DD00D000
:10062000000CF2CF0DF0F29EE824F76AF736470F80
:10063000F66E060EF7220A00F550FA6E0800F55025
:100640000DBEF28EF96EF005FC0510061806F86A6C
:10065000D09E078EEA6AE96A700ED36E400E9B6EDA
:10066000D350C150C00B0F09C16E070EB46E166A8D
:10067000176A0F0E926EF70E936EF20E946E9682BC
:10068000896A080E8A6E010E8B6EF19EC050C00BF7
:100690000709C06EC09EC280C150C00B0D09C16E5B
:1006A0001D6A216A1DC05EF020DD5BDDA3DDF2CF97
:1006B0005AF0F29EA96AA69CA69EA680A8505ABE91
:1006C000F28E3F6EF2CF5AF0F29E050EA96EA69CF6
:1006D000A69EA680A8505ABEF28E4B6E476A466A06
:1006E000496A486A4A6A4E92506A516A4C6A546A28
:1006F000536A446AF2CF5AF0F29E070EA96EA69C86
:10070000A69EA680A8505ABEF28E4D6EF2CF5AF029
:10071000F29E0C0EA96EA69CA69EA680A8505ABE5C
:10072000F28E526EF2CF5AF0F29E0A0EA96EA69C7D
:10073000A69EA680A8505ABEF28E4F6EF2CF5AF0F7
:10074000F29E0B0EA96EA69CA69EA680A8505ABE2D
:10075000F28E566A556E5E6A640E5D6E56C060F02B
:1007600055C05FF01BDD02C056F001C055F0F2CF5E
:100770005AF0F29E800EA96EA69CA69EA680A85056
:100780005ABEF28E586EF2CF5AF0F29E810EA96ECA
:10079000A69CA69EA680A8505ABEF28E596E5850AE
:1007A0000308D8A0586A59500308D8A0596A3E6A6D
:1007B0003D6A40922C922E923092329234923A922A
:1007C00036923892329081B43280349081A0348055
:1007D0003A9082BE3A80369080B43680389080B6A7
:1007E00038803AA003D0010E576E01D0576ACF6A05
:1007F000CE6A850ECD6E0B0EBD6E030EBF6E200E43
:10080000BE6E9D84C00EF212040082BA08D04082EF
:10081000349081B0348024B201D02EDD06D040A2C5
:1008200004D024A201D09DDC409281A202D089880C
:1008300001D0899856D5E8D540A0B9D14090432A37
:1008400043506308D8B0B3D1436A40B25BD04C2A5E
:100850004D504C5C15E34C6A4F50505C10E3512AEC
:100860005250515C0CE34EB203D0572C01D004DD42
:100870004E82516A546A536A496A486A4A6A506A9F
:10088000532AD8B4542A5650545C09E303E1555016
:10089000535C05E34E92546A536A516A4C6A4EB2F5
:1008A00031D0476A466A482AD8B4492A49501608BE
:1008B00029E2FF0A03E148506F0824E2496A486AC6
:1008C0004A2A572C0DD0F2CF5AF0F29E080EA96E8C
:1008D000A69CA69EA680A8505ABEF28E4F6E0CD043
:1008E000F2CF5AF0F29E040EA96EA69CA69EA68098
:1008F000A8505ABEF28E4F6E4F504A5C03E34E92A0
:100900004A6A2FDC24A222D024B020D0416A38B019
:1009100002D0010E416E36B002D0020E4126415087
:10092000FC0F14E2040FD9EF05F08A863E6A3D6A97
:10093000426A3C900BD08EDD09D0D4DD07D0425006
:10094000010802E387DD01D0CDDD00D020A024D056
:100950002306235221E12150225C02E120901CD089
:100960002150225C07E2010E22245A6E5E6E75EC65
:1009700000F006D0010E225C5A6E5E6E75EC00F03F
:10098000F2CF5AF0F29E0E0EA96EA69CA69EA680ED
:10099000A8505ABEF28E236E24B226D0572C24D0F3
:1009A000452A40A411D0F2CF5AF0F29E190EA96E3A
:1009B000A69CA69EA680A8505ABEF28E455C03E374
:1009C0004094456A8B8010D0F2CF5AF0F29E1A0EF6
:1009D000A96EA69CA69EA680A8505ABEF28E455C23
:1009E00003E34084456A8B9024A010D0272AF2CFDD
:1009F0005AF0F29E010EA96EA69CA69EA680A85053
:100A00005ABEF28E275C02E3276A249028A010D0F9
:100A10002B2AF2CF5AF0F29E0A0EA96EA69CA69E31
:100A2000A680A8505ABEF28E2B5C02E32B6A289057
:100A30001CA049D01F2A1F503F5C45E21C901EC0DD
:100A40001DF01DC021F028A219D01DC058F0800E45
:100A5000A96E58C0A8FFA69CA69EA684F250006E60
:100A6000F29E0F01550EA76EAA0EA76EA682A6B221
:100A7000FED7A6940050F21218D000011DC059F004
:100A8000810EA96E59C0A8FFA69CA69EA684F2500E
:100A9000006EF29E0F01550EA76EAA0EA76EA682DB
:100AA000A6B2FED7A6940050F2122080F2CF5AF0E0
:100AB000F29E0D0EA96EA69CA69EA680A8505ABEB8
:100AC000F28E236E000136A206D0372A37503F5CE3
:100AD00002E23692367038A206D0392A39503F5C8D
:100AE00002E2389238703AA20ED03B2A3B503F5C6B
:100AF0000AE23A9240B207D03A703AA003D0010E0F
:100B0000576E01D0576A34A212D0352A35503F5C57
:100B10000EE2349240A20BD0349081A0348024A203
:100B200006D034A002D01ADD02D0FAEC00F032A2D6
:100B300010D0332A33503F5C0CE23292327040B214
:100B400008D024A206D032A002D008DD02D0FAECF0
:100B500000F030A212D0312A31503F5C0EE23092C8
:100B6000307040B20AD024A208D030B006D028A2FB
:100B700003D0FAEC00F001D0F1DC2CA20BD02D2A2E
:100B80002D503F5C07E22C922C7040B203D02CB069
:100B900001D026DD2EA20BD02F2A2F503F5C07E27A
:100BA0002E922E7040B203D02EB001D019DD2CD67B
:100BB0000300F2CF0DF0F29EE824F76AF736D70F64
:100BC000F66E0B0EF7220A00F550FA6E0800F5508B
:0E0BD0000DBEF28EF96E2A0936093A093E0969
:0200000400F00A
:10000000146423413C2814640F1464640564271E9F
:0C001000642896C83C323C3C3C32320074
:020000040030CA
:0E00000000081E05000181000FC00FE00F4038
:00000001FF
;PIC18F2520
;CRC=A85F  CREATED="01-Dec-14 11:18"
